:100000000EC015C014C013C012C011C010C00FC064
:100010000EC00DC00CC00BC00AC009C008C011241E
:100020001FBECFE5D2E0DEBFCDBF02D02CC0E8CFEF
:100030008FEF87BB18BAC39A82E090E0019797FDD3
:10004000C398C49A2FEF31EE44E021503040404035
:10005000E1F700C00000C4982FEF31EE44E02150DA
:1000600030404040E1F700C000008A3F2FEF920788
:1000700029F73FEF44E38CE0315040408040E1F706
:0A00800000C00000D8CFF894FFCFB5
:00000001FF
